{
  "_format": "hh-sol-artifact-1",
  "contractName": "OpenContent",
  "sourceName": "contracts/OpenContent.sol",
  "abi": [
    {
      "anonymous": false,
      "inputs": [
        {
          "indexed": false,
          "internalType": "string[]",
          "name": "data",
          "type": "string[]"
        },
        {
          "indexed": false,
          "internalType": "address",
          "name": "owner",
          "type": "address"
        }
      ],
      "name": "Post",
      "type": "event"
    },
    {
      "inputs": [
        {
          "internalType": "string[]",
          "name": "data",
          "type": "string[]"
        }
      ],
      "name": "createNewPost",
      "outputs": [],
      "stateMutability": "nonpayable",
      "type": "function"
    }
  ],
  "bytecode": "0x608060405234801561001057600080fd5b50610374806100206000396000f3fe608060405234801561001057600080fd5b506004361061002b5760003560e01c8063adc0799514610030575b600080fd5b61004a600480360381019061004591906100fa565b61004c565b005b7f32849f6462c15458f4132e0f798cf4e4e285fce258e1852b82a474e19a4227a182823360405161007f9392919061030c565b60405180910390a15050565b600080fd5b600080fd5b600080fd5b600080fd5b600080fd5b60008083601f8401126100ba576100b9610095565b5b8235905067ffffffffffffffff8111156100d7576100d661009a565b5b6020830191508360208202830111156100f3576100f261009f565b5b9250929050565b600080602083850312156101115761011061008b565b5b600083013567ffffffffffffffff81111561012f5761012e610090565b5b61013b858286016100a4565b92509250509250929050565b600082825260208201905092915050565b6000819050919050565b600082825260208201905092915050565b82818337600083830152505050565b6000601f19601f8301169050919050565b600061019f8385610162565b93506101ac838584610173565b6101b583610182565b840190509392505050565b60006101cd848484610193565b90509392505050565b600080fd5b600080fd5b600080fd5b60008083356001602003843603038112610202576102016101e0565b5b83810192508235915060208301925067ffffffffffffffff82111561022a576102296101d6565b5b6001820236038413156102405761023f6101db565b5b509250929050565b6000602082019050919050565b60006102618385610147565b93508360208402850161027384610158565b8060005b878110156102b957848403895261028e82846101e5565b6102998682846101c0565b95506102a484610248565b935060208b019a505050600181019050610277565b50829750879450505050509392505050565b600073ffffffffffffffffffffffffffffffffffffffff82169050919050565b60006102f6826102cb565b9050919050565b610306816102eb565b82525050565b60006040820190508181036000830152610327818587610255565b905061033660208301846102fd565b94935050505056fea2646970667358221220e3f0865ede8f8acdb0ec08d4b100ce037af73ea320257ff9fb68b32f6703fb5f64736f6c63430008090033",
  "linkReferences": {},
  "deployedLinkReferences": {}
}